{
  "_format": "hh-sol-artifact-1",
  "contractName": "SocialNetwork",
  "sourceName": "contracts/SocialNetwork.sol",
  "abi": [
    {
      "inputs": [
        {
          "internalType": "string",
          "name": "_content",
          "type": "string"
        }
      ],
      "name": "createPost",
      "outputs": [],
      "stateMutability": "nonpayable",
      "type": "function"
    },
    {
      "inputs": [],
      "name": "getPosts",
      "outputs": [
        {
          "components": [
            {
              "internalType": "address",
              "name": "author",
              "type": "address"
            },
            {
              "internalType": "string",
              "name": "content",
              "type": "string"
            },
            {
              "internalType": "uint256",
              "name": "timestamp",
              "type": "uint256"
            }
          ],
          "internalType": "struct SocialNetwork.Post[]",
          "name": "",
          "type": "tuple[]"
        }
      ],
      "stateMutability": "view",
      "type": "function"
    },
    {
      "inputs": [],
      "name": "postCount",
      "outputs": [
        {
          "internalType": "uint256",
          "name": "",
          "type": "uint256"
        }
      ],
      "stateMutability": "view",
      "type": "function"
    },
    {
      "inputs": [
        {
          "internalType": "uint256",
          "name": "",
          "type": "uint256"
        }
      ],
      "name": "posts",
      "outputs": [
        {
          "internalType": "address",
          "name": "author",
          "type": "address"
        },
        {
          "internalType": "string",
          "name": "content",
          "type": "string"
        },
        {
          "internalType": "uint256",
          "name": "timestamp",
          "type": "uint256"
        }
      ],
      "stateMutability": "view",
      "type": "function"
    }
  ],
  "bytecode": "0x6080604052348015600f57600080fd5b50610bc08061001f6000396000f3fe608060405234801561001057600080fd5b506004361061004c5760003560e01c80630b1e7f831461005157806317906c2e1461008357806341f3004a146100a1578063c7303c61146100bf575b600080fd5b61006b6004803603810190610066919061042c565b6100db565b60405161007a93929190610539565b60405180910390f35b61008b6101bd565b6040516100989190610577565b60405180910390f35b6100a96101c9565b6040516100b6919061070c565b60405180910390f35b6100d960048036038101906100d49190610863565b61031a565b005b600081815481106100eb57600080fd5b90600052602060002090600302016000915090508060000160009054906101000a900473ffffffffffffffffffffffffffffffffffffffff1690806001018054610134906108db565b80601f0160208091040260200160405190810160405280929190818152602001828054610160906108db565b80156101ad5780601f10610182576101008083540402835291602001916101ad565b820191906000526020600020905b81548152906001019060200180831161019057829003601f168201915b5050505050908060020154905083565b60008080549050905090565b60606000805480602002602001604051908101604052809291908181526020016000905b8282101561031157838290600052602060002090600302016040518060600160405290816000820160009054906101000a900473ffffffffffffffffffffffffffffffffffffffff1673ffffffffffffffffffffffffffffffffffffffff1673ffffffffffffffffffffffffffffffffffffffff168152602001600182018054610276906108db565b80601f01602080910402602001604051908101604052809291908181526020018280546102a2906108db565b80156102ef5780601f106102c4576101008083540402835291602001916102ef565b820191906000526020600020905b8154815290600101906020018083116102d257829003601f168201915b50505050508152602001600282015481525050815260200190600101906101ed565b50505050905090565b600060405180606001604052803373ffffffffffffffffffffffffffffffffffffffff16815260200183815260200142815250908060018154018082558091505060019003906000526020600020906003020160009091909190915060008201518160000160006101000a81548173ffffffffffffffffffffffffffffffffffffffff021916908373ffffffffffffffffffffffffffffffffffffffff16021790555060208201518160010190816103d29190610ab8565b5060408201518160020155505050565b6000604051905090565b600080fd5b600080fd5b6000819050919050565b610409816103f6565b811461041457600080fd5b50565b60008135905061042681610400565b92915050565b600060208284031215610442576104416103ec565b5b600061045084828501610417565b91505092915050565b600073ffffffffffffffffffffffffffffffffffffffff82169050919050565b600061048482610459565b9050919050565b61049481610479565b82525050565b600081519050919050565b600082825260208201905092915050565b60005b838110156104d45780820151818401526020810190506104b9565b60008484015250505050565b6000601f19601f8301169050919050565b60006104fc8261049a565b61050681856104a5565b93506105168185602086016104b6565b61051f816104e0565b840191505092915050565b610533816103f6565b82525050565b600060608201905061054e600083018661048b565b818103602083015261056081856104f1565b905061056f604083018461052a565b949350505050565b600060208201905061058c600083018461052a565b92915050565b600081519050919050565b600082825260208201905092915050565b6000819050602082019050919050565b6105c781610479565b82525050565b600082825260208201905092915050565b60006105e98261049a565b6105f381856105cd565b93506106038185602086016104b6565b61060c816104e0565b840191505092915050565b610620816103f6565b82525050565b600060608301600083015161063e60008601826105be565b506020830151848203602086015261065682826105de565b915050604083015161066b6040860182610617565b508091505092915050565b60006106828383610626565b905092915050565b6000602082019050919050565b60006106a282610592565b6106ac818561059d565b9350836020820285016106be856105ae565b8060005b858110156106fa57848403895281516106db8582610676565b94506106e68361068a565b925060208a019950506001810190506106c2565b50829750879550505050505092915050565b600060208201905081810360008301526107268184610697565b905092915050565b600080fd5b600080fd5b7f4e487b7100000000000000000000000000000000000000000000000000000000600052604160045260246000fd5b610770826104e0565b810181811067ffffffffffffffff8211171561078f5761078e610738565b5b80604052505050565b60006107a26103e2565b90506107ae8282610767565b919050565b600067ffffffffffffffff8211156107ce576107cd610738565b5b6107d7826104e0565b9050602081019050919050565b82818337600083830152505050565b6000610806610801846107b3565b610798565b90508281526020810184848401111561082257610821610733565b5b61082d8482856107e4565b509392505050565b600082601f83011261084a5761084961072e565b5b813561085a8482602086016107f3565b91505092915050565b600060208284031215610879576108786103ec565b5b600082013567ffffffffffffffff811115610897576108966103f1565b5b6108a384828501610835565b91505092915050565b7f4e487b7100000000000000000000000000000000000000000000000000000000600052602260045260246000fd5b600060028204905060018216806108f357607f821691505b602082108103610906576109056108ac565b5b50919050565b60008190508160005260206000209050919050565b60006020601f8301049050919050565b600082821b905092915050565b60006008830261096e7fffffffffffffffffffffffffffffffffffffffffffffffffffffffffffffffff82610931565b6109788683610931565b95508019841693508086168417925050509392505050565b6000819050919050565b60006109b56109b06109ab846103f6565b610990565b6103f6565b9050919050565b6000819050919050565b6109cf8361099a565b6109e36109db826109bc565b84845461093e565b825550505050565b600090565b6109f86109eb565b610a038184846109c6565b505050565b5b81811015610a2757610a1c6000826109f0565b600181019050610a09565b5050565b601f821115610a6c57610a3d8161090c565b610a4684610921565b81016020851015610a55578190505b610a69610a6185610921565b830182610a08565b50505b505050565b600082821c905092915050565b6000610a8f60001984600802610a71565b1980831691505092915050565b6000610aa88383610a7e565b9150826002028217905092915050565b610ac18261049a565b67ffffffffffffffff811115610ada57610ad9610738565b5b610ae482546108db565b610aef828285610a2b565b600060209050601f831160018114610b225760008415610b10578287015190505b610b1a8582610a9c565b865550610b82565b601f198416610b308661090c565b60005b82811015610b5857848901518255600182019150602085019450602081019050610b33565b86831015610b755784890151610b71601f891682610a7e565b8355505b6001600288020188555050505b50505050505056fea26469706673582212200e5d5b88e8fd566aaedcbb4b391b796f6ba8c5e7bf7b0ddc84e2fc11fc25660764736f6c634300081b0033",
  "linkReferences": {},
  "deployedLinkReferences": {}
}